:020000040000FA
:06000000DAEF00F012002F
:0A0006000100D2010000800000009C
:040010000D000000DF
:0C00140002D8FFD7120082948296180ECA
:100020008A6E936A9268C2800E0EC16E0001200E25
:100030008C6F7A0E896F3C0E8A6F010E8B6FC50E26
:10004000D56EF28AF28E120000018E5106E08E6BA0
:10005000010E8F6F8A8A8A9810D08F5106E08F6BBD
:10006000010E906F8A888A9608D0905103E0906BB9
:100070008A8603D0010E8E6F8A9A916B1200C2821B
:10008000C2B2FED700018E5103E0C4CF83F012004C
:100090008F5103E0C4CF84F01200905102E0C4CF2E
:1000A00085F01200000186518025866FD850010B23
:1000B00002E0010E01D0000EE8B08A84E8A08A9424
:1000C00087518125876FD850010B02E0010E01D0C6
:1000D000000EE8B08A82E8A08A9288518225886F53
:1000E000D850010B02E0010E01D0000EE8B08A806A
:0600F000E8A08A90120056
:0A00F600060EF66E000EF76E000E07
:10010000F86E00010900F5509D6F0900F5509E6FD3
:1001100003E19D6701D03DD00900F550986F0900BB
:10012000F550996F0900F5509A6F09000900F550D4
:10013000E96E0900F550EA6E090009000900F55062
:100140009B6F0900F5509C6F09000900F6CF9FF0E6
:10015000F7CFA0F0F8CFA1F098C0F6FF99C0F7FF55
:100160009AC0F8FF00019B5302E19C5307E009008D
:10017000F550EE6E9B07F8E29C07F9D79FC0F6FF9B
:10018000A0C0F7FFA1C0F8FF00019D07000E9E5B15
:04019000BFD71200C3
:0C019400000EF36E00EE00F0020E01D829
:1001A0001200EA6002D0EE6AFCD7F350E960120058
:0401B000EE6AFCD720
:0C01B40011EE00F021EE00F0F86A019C52
:1001C0007BEC00F0E8EC00F00AEC00F0FBD712004A
:0201D00012001B
:0D01D2000000000000000000000000000020
:00000001FF
